:020000041000EA
:1000000000B5324B212058609868022188439860DF
:10001000D860186158612E4B002199600221596106
:100020000121F02299502B49196001219960352056
:1000300000F044F80222904214D00621196600F024
:1000400034F8196E01211966002018661A6600F04E
:100050002CF8196E196E196E052000F02FF8012189
:100060000842F9D1002199601B49196000215960AB
:100070001A491B48016001219960EB211966A021F2
:10008000196600F012F800219960164914480160C1
:100090000121996001BC002800D000471248134993
:1000A000086003C880F30888084703B5996A0420EC
:1000B0000142FBD001200142F8D103BD02B5186610
:1000C0001866FFF7F2FF186E186E02BD00000240BE
:1000D000000000180000070000035F00212200005C
:1000E000F4000018222000A00001001008ED00E03C
:1000F00000000000000000000000000074B24E7A12
:1001000000200420F7010010C3010010C5010010F9
:10011000C1010010C1010010C1010010C101001097
:10012000C1010010C1010010C1010010C701001081
:10013000C1010010C1010010C9010010CB01001065
:10014000CD010010CD010010CD010010CD01001037
:10015000CD010010CD010010CD010010CD01001027
:10016000CD010010CD010010CD010010CD01001017
:10017000CD010010CD010010CD010010CD01001007
:10018000CD010010CD010010CD010010CD010010F7
:10019000CD010010CD010010CD010010CD010010E7
:1001A000CD010010CD010010CD010010CD010010D7
:1001B000CD010010CD010010CD010010CD010010C7
:1001C00000BE00BE00BE00BE00BE00BEEFF3058054
:1001D000103800BEF2EB88719CE10010C4E1001001
:1001E0003402001090A31AE700201F49086006C8D7
:1001F00081F3088810471D48006800282FD10DA4FE
:100200000ECC002902D000F012F8F9E71849194A7B
:10021000002000E001C19142FCD1174988471749ED
:1002200088471749884700BEFDE701C901C29A42C5
:10023000FBD37047C4E10010C0000020D814002098
:10024000DCF500100000042000000420DCF50010A4
:10025000001004200010042000000000704709482E
:1002600005F088FD0047000008ED00E0000000D028
:10027000D81400206C220020794300106D04001077
:10028000BF4400105756000005005250DE65F46868
:10029000DCF50010060052505422A29D34D9001003
:1002A00006005250861C030240D90010060052502E
:1002B000ABB3605350D90010F8B5C0460448054BA5
:1002C00010B5834203D0044B002B00D0984710BDDB
:1002D000D8140020D8140020000000000648074968
:1002E000091A8B10C90FC91810B5491003D0044B57
:1002F000002B00D0984710BDD8140020D81400203F
:100300000000000010B5074C2378002B09D1FFF73F
:10031000D5FF054B002B02D0044800E000BF0123AD
:10032000237010BDE01500200000000050C5001033
:10033000054B10B5002B03D00449054800E000BF71
:10034000FFF7CCFF10BDC04600000000E415002000
:1003500050C5001080B582B000AF78607B68002285
:100360000121180000F07EF9C046BD4602B080BDF4
:1003700080B582B000AF7860D0231B065A687B68D6
:10038000DA401300012213405A1E9341DBB21800D9
:10039000BD4602B080BD80B582B000AF7860D0238A
:1003A0001B067A685A61C046BD4602B080BD80B562
:1003B00082B000AF7860D0231B067A689A61C0468D
:1003C000BD4602B080BD80B584B000AF78600A0041
:1003D000FB1C1A7001227B689A401300FB60FB1C17
:1003E0001B78002B04D0FB681800FFF7D4FF03E054
:1003F000FB681800FFF7DBFFC046BD4604B080BDB8
:1004000080B582B000AF7860D0231B067A685A624C
:10041000C046BD4602B080BD80B582B000AF7860F6
:10042000D0231B067A689A62C046BD4602B080BDE2
:1004300080B584B000AF78600A00FB1C1A700122FE
:100440007B689A401300FB60FB1C1B78002B04D0D8
:10045000FB681800FFF7D4FF03E0FB681800FFF704
:10046000DBFFC046BD4604B080BD000090B583B040
:1004700000AF06F00EFF1923180000F031F9192320
:1004800001211800FFF7D4FF1323180000F028F90A
:10049000132301211800FFF7CBFF1423180000F0ED
:1004A0001FF9142300211800FFF7C2FF14231800BE
:1004B000FFF750FF1523180000F012F91523002153
:1004C0001800FFF7B5FF15231800FFF743FF1423AB
:1004D000FC1D1800FFF74CFF030023701523BC1D03
:1004E0001800FFF745FF030023701922FB1D1B783E
:1004F00019001000FFF767FFFB1D1978BB1D1A7864
:10050000034B180006F0AEFE642002F029FADEE785
:1005100050C5001080B582B000AF7860C046BD46BF
:1005200002B080BD80B582B000AF7860D0231B06DA
:100530007A685A61C046BD4602B080BD80B582B0BF
:1005400000AF7860D0231B067A689A61C046BD462A
:1005500002B080BD80B584B000AF78600A00FB1C9B
:100560001A7001227B689A401300FB60FB1C1B7809
:10057000002B04D0FB681800FFF7D4FF03E0FB68F2
:100580001800FFF7DBFFC046BD4604B080BD80B554
:1005900082B000AF7860D0231B067A685A62C046EA
:1005A000BD4602B080BD80B582B000AF7860D02378
:1005B0001B067A689A62C046BD4602B080BD80B50F
:1005C00084B000AF78600A00FB1C1A7001227B68BF
:1005D0009A401300FB60FB1C1B78002B04D0FB68C7
:1005E0001800FFF7D4FF03E0FB681800FFF7DBFFFC
:1005F000C046BD4604B080BD80B588B000AF78600D
:100600000A00FB1C1A707B681800FFF783FF7B68E9
:100610009B00124A94466344FB614023BB61C023A4
:100620007B61FB691A68BB6953407A691340FA69B8
:100630003A61FB603B69802252011343FA681A60F9
:10064000C046C0460649FB1C1A787B68DB00CB1805
:1006500004331A60C046BD4608B080BD04C00140E6
:100660000040014080B588B000AF786008001100FC
:10067000FB1C021C1A70BB1C0A1C1A707B68180039
:10068000FFF748FF7B689B00144A9918FB1C1B78F6
:10069000002B01D0082200E00022BB1C1B78002B9D
:1006A00001D0042300E000231343F961BB610C2354
:1006B0007B61FB691A68BB6953407A691340FA6928
:1006C0003A61FB603B69802252011343FA681A6069
:1006D000C046C046C046BD4608B080BD04C001400B
:1006E00080B582B000AF78607B6800211800FFF70A
:1006F00066FF7B6800211800FFF72CFF7B6805214F
:100700001800FFF779FFC046BD4602B080BD00006B
:1007100080B500AF044B1B68022213405A1E934160
:10072000DBB21800BD4680BD00C0064080B586B073
:1007300000AF0B237B607B680F4A944663449B00A9
:100740007B61EFF3108372B63B613B69FB607B69B1
:10075000BB60C046BB681B685A425341DBB2002BEA
:10076000F8D1BFF35F8FC046C046C046FB68180093
:10077000BD4606B080BDC0464000003480B588B09C
:1007800000AF78600B23FB60FB680E4A944663441D
:100790009B00FB617B68BB61FB697B61BFF35F8F83
:1007A000C046C0467B6900221A60C046BB693B61F7
:1007B0003B6983F31088C046C046C046BD4608B0BA
:1007C00080BDC0464000003480B582B000AF786084
:1007D00039603B68DB087A68D3181B7819003B68DE
:1007E0000722134001229A4013000B405A1E9341E6
:1007F000DBB21800BD4602B080BD80B586B000AF48
:10080000F860B9607A60FFF791FF03007B61BA6816
:10081000FB6811001800FFF7D7FF031E05D0BA6868
:100820007B681100180003F079FEBB68DB08FA68EA
:10083000D3181978BB680722134001229A4013008D
:10084000DAB2BB68DB08F868C3180A43D2B21A7080
:100850007B691800FFF792FFC046BD4606B080BD19
:1008600080B588B000AFF8607A603B600B23FB185E
:100870000A1C1A70FFF75AFF03007B6101235B42D9
:10088000FB617B68BB6125E0BA69FB681100180059
:10089000FFF79AFF03001A0001235340DBB2002B3D
:1008A00015D0BB69DB08FA68D3181978BB69072231
:1008B000134001229A401300DAB2BB69DB08F868E2
:1008C000C3180A43D2B21A70BB69FB6106E0BB6968
:1008D0000133BB61BA693B689A42D5D97B6918007C
:1008E000FFF74CFFFB69002B08DA0B23FB181B7882
:1008F000002B03D0BB6A180003F010FEFB69180040
:10090000BD4608B080BD000080B584B000AF0023B4
:10091000FB6012E0FB687B607B680C4A9446634492
:100920009B00BB60BFF35F8FC046C046BB68002220
:100930001A60C046FB680133FB60FB681F2BE9D9D6
:10094000C046C046BD4604B080BDC046400000342D
:1009500080B582B000AF094B1B785A1CD1B2074A50
:1009600011707B60054B1B78172B02D9034B1022AB
:100970001A707B681800BD4602B080BDC813002005
:1009800080B584B002AF0200FB1D1A70FB1D197800
:100990000548064B00931F231822FFF761FF030051
:1009A0001800BD4602B080BD601B0020E8C50010E5
:1009B00080B582B000AF7860C046BD4602B080BD51
:1009C00080B500AF014B1800BD4680BD6A220020F3
:1009D00080B500AF024B9B681800BD4680BDC04685
:1009E00000ED00E080B582B000AF78607B68012246
:1009F00013431800BD4602B080BD80B582B000AF81
:100A000078607B68012293431800BD4602B080BD28
:100A100080B58AB000AFF860B9607A60FFF7D8FFA0
:100A20000200FB6810339B00D318BA681A60BFF34A
:100A30005F8FC04609237B617B690E4A94466344FD
:100A40009B007B627B683B627B6AFB61BFF35F8FCD
:100A5000C046C046FB6900221A60C0463B6ABB61C3
:100A6000BB6983F31088C046C046C046BD460AB085
:100A700080BDC0464000003480B582B000AF7860D1
:100A80000A00FB1C1A707B681800FFF791FF012217
:100A90007B689A40FB1C1B781900100000F01CF8C2
:100AA000C046BD4602B080BD80B582B000AF786060
:100AB0007B681800FFF77CFF01227B689A40054B9A
:100AC0001B6813405A1E9341DBB21800BD4602B0AA
:100AD00080BDC04600E100E080B582B000AF786024
:100AE0000A00FB1C1A70FB1C1B78002B06D0074B5E
:100AF0007A681A60064B7A681A6002E0054B7A68D9
:100B00001A60C046BD4602B080BDC04680E200E02B
:100B100000E100E080E100E080B582B000AF7860E5
:100B20007B681800FFF744FF044B01217A6891406D
:100B30000A001A60C046BD4602B080BD00E200E077
:100B400080B582B000AF78607A68054BD21A2F2149
:100B5000002391425B41DBB21800BD4602B080BD6C
:100B6000CC13002080B584B000AF78607B6818009B
:100B7000FFF71EFF7B68180000F016F80300FB600B
:100B8000FB68002B07D0FB681800FFF7D9FF031E96
:100B900001D0012300E000231A1C01231340DBB223
:100BA0001800BD4604B080BD80B582B000AF78604B
:100BB0007B681800FFF7FCFEFFF70AFF02007B6866
:100BC00010339B00D3181B681800BD4602B080BDCF
:100BD00080B58AB000AF786039607B681800FFF795
:100BE000E7FE0923BB60BB681D4A944663449B0033
:100BF0007B627B6ABB61EFF3108372B67B617B69BA
:100C00003B61BB69FB60C046FB681B685A425341AD
:100C1000DBB2002BF8D1BFF35F8FC046C046C046A1
:100C20003B693B627B681800FFF7BEFF0300FB6176
:100C3000FA690C4B9A4209D0FA693B689A4205D08E
:100C4000094B0A4A0A48862103F042FC3A6A39688D
:100C50007B681800FFF7DCFEC046BD460AB080BDC9
:100C600040000034CD01001004C6001058C8001028
:100C70003CC6001080B586B000AF786039607B68F4
:100C80007B613B683B613A697B69D31A043BFB603B
:100C9000FB680F4A934207DBFB680E4A934203DC72
:100CA000FB680122134005D00B4B0C4A0C48A321D2
:100CB00003F00EFCFB685B101BB25B055B0D1BB207
:100CC000084A13431BB29BB21800BD4606B080BD54
:100CD00000F8FFFFFE0700008CC6001074C800106B
:100CE0003CC6001000E0FFFF80B586B000AF786022
:100CF00039607B687B613B683B613A697B69D31AE9
:100D0000043B5B08FB60FB68DB0A05D00E4B0F4A17
:100D10000F48AB2103F0DCFBFB68DB0A9BB25B05F1
:100D20005B0D9BB20B4A13439AB27B681A80FB6837
:100D30009AB27B68023308490A4392B21A80C046CD
:100D4000BD4606B080BDC046BCC6001080C80010BD
:100D50003CC6001000F0FFFF00F8FFFF80B584B034
:100D600000AF78607B681B88DB0A9BB21C2B05D028
:100D70000D4B0E4A0E48B12103F0AAFB7B681B887D
:100D80005B05FB60FB68002B02DA0A4A9446634469
:100D90005B15FB60FB6802335B007A68D3181800B0
:100DA000BD4604B080BDC046CCC60010B0C800101F
:100DB0003CC60010FFFF1F0080B584B000AF786014
:100DC0003960084BFB603968FA687B685B1A5B41E5
:100DD0005A43120DFA607B60FB685BB21800BD4697
:100DE00004B080BDAAAA000080B582B000AF7860D0
:100DF000054A7B6811001800FFF7DEFF03001800AA
:100E0000BD4602B080BDC046CC13002090B59BB05B
:100E100000AFF860B960FB1D1A70FB681800FFF79F
:100E2000C7FD09237B637B6BA04A944663449B0008
:100E3000BB65BB6D7B64EFF3108372B63B643B6CA8
:100E4000FB637B6CBB63C046BB6B1B685A42534160
:100E5000DBB2002BF8D1BFF35F8FC046C046C0465F
:100E6000FB6B7B65924B1B785BB2002B05DA914BD9
:100E7000914A9248D72103F02BFB8D4B1B785BB234
:100E80001A0013005B009B189B008D4A9B183B6562
:100E90004F23FB18864A12781A703B6D06229A5629
:100EA000834B1A70FFF794FD0200FB6810339B0020
:100EB000D3181B687B667B6E1800FFF741FE0300AA
:100EC0001A0001235340DBB2002B31D07A6E7D4BE8
:100ED0009A4205D07C4B784A7848DE2103F0F8FA34
:100EE00028243B19794A1A803B6D0233784A110055
:100EF0001800FFF7BFFE03001A0021007B185A807C
:100F00007B18744A9A807B18FF229A717B18FA1D0D
:100F10001278DA717B18BA689A603B6D7A1813CA36
:100F200013C33B6D1800FFF75DFD03007B66B2E065
:100F30007A6E634BDB43D3180C21180004F0A0FF3A
:100F40000B1E05D0644B5C4A5C48EA2103F0C0FAF2
:100F500000233B667B6E1800FFF74FFD0300BB6468
:100F6000BB6CFB6511E0FB6D3B66FB6D9B795BB277
:100F7000002B11DBFB6D9B795BB21A0013005B0049
:100F80009B189B004E4A9B18FB65FB6DDB79FA1D95
:100F900012789A42E7D300E0C0463B6E002B40D067
:100FA0001C217B184D4A1A807B188F22D2015A804F
:100FB0003B6E9B795BB2002B0EDB3B6D1C1D3B6EC9
:100FC00004331800FFF7CAFE030019002000FFF7E2
:100FD00051FE03001A0000E0414A1C243B199A808C
:100FE0003B6E06229A563B199A713B19FA1D1278EC
:100FF000DA713B19BA689A603B6E04333A6D11009E
:101000001800FFF737FE03001A003B6E9A803B6E14
:101010004F22BA1812789A713B6D3A1913CA13C34A
:1010200039E010243B19294A1A803B6D0233284AC3
:1010300011001800FFF71EFE03001A003B195A802A
:101040003B6D0433BA6C11001800FFF713FE030068
:101050001A003B199A80BB6C1800FFF7C5FE03000D
:101060001A003B199A713B19FA1D1278DA713B1973
:10107000BA689A603B6D3A1913CA13C3BB6C174A1E
:101080001A80BB6C8F22D2015A803B6D1800FFF78B
:10109000A9FC03007B667A6D796EFB681800FFF788
:1010A000B7FCC046BD461BB090BDC04640000034F2
:1010B00065220020E4C6001098C800103CC600104D
:1010C000CC130020CD0100100CC7001000A1FFFFC1
:1010D000FC13002001BDFFFF34C7001001480000D1
:1010E00001BD000090B593B000AF7860396009236E
:1010F000FB60FB68844A944663449B00BB63BB6B04
:10110000FB61EFF3108372B6BB61BB697B61FB6966
:101110003B61C0463B691B685A425341DBB2002B1E
:10112000F8D1BFF35F8FC046C046C0467B697B6382
:10113000FFF74EFC02007B6810339B00D3181B683E
:101140007B647A6C714B9A4200D1D0E07A6C3B6838
:101150009A4200D1CBE07B6C1800FFF7F1FC031E34
:1011600000D1C6E03323FC187B681800FFF79CFC15
:10117000030023707B6800211800FFF77DFCBFF39C
:101180005F8FC046EFF30583BB60BB68FB62FB6A01
:10119000002B0BD07B681033FA6A9A4206D05C4B66
:1011A0005C4A3621FF315C4803F092F900233B642E
:1011B0007B6C1800FFF721FC0300BB62BB6AFB637A
:1011C00011E0FB6B3B64FB6B9B795BB2002B10DB8C
:1011D000FB6B9B795BB21A0013005B009B189B00B2
:1011E0004E4A9B18FB63FB6B9B683A689A42E8D1B6
:1011F00000E0C046FB6B9B683A689A4267D12721A2
:101200007B18FA6B92791A700A00BB181B787F2B37
:1012100038D8BB1800229A5613005B009B189B001D
:101220003E4A9B183B623B6A9A68FB6B9A603B6A3A
:10123000DA79FB6BDA713B6A06229A56FB6B9A717C
:101240003B6A9B795BB2002B0EDBFB6B1C1D3B6A80
:1012500004331800FFF782FD030019002000FFF798
:1012600009FD03001A0000E02D4AFB6B9A802D4B0C
:1012700000229A563B6A9A712A4B2722BA18127892
:101280001A702BE0FB6A002B19D13B6C002B06D0A7
:101290003B6CFF229A713B6C234A9A8001E01B4B06
:1012A0007B64204B00229A56FB6B9A71FB6B1800F3
:1012B000FFF79AFD03001A001A4B1A700EE0FB6B41
:1012C00004331A4A11001800FFF70EFD06E0184B10
:1012D000104A6A21FF31104803F0FAF83323FB1853
:1012E0001A787B6811001800FFF7C6FB01E0074B76
:1012F0007B647A6B796C7B681800FFF789FBC046CA
:10130000BD4613B090BDC04640000034CD01001072
:10131000A8C70010C0C800103CC60010CC130020A5
:1013200001BD00006522002001BDFFFF0614002062
:10133000DCC7001090B595B000AF78607B681800EE
:10134000FFF750FB03007B647B6C1800FFF7F8FB92
:10135000031E06D15B4B5C4AC72149005B4803F082
:10136000B7F8EFF305833B633B6B3B643B6C002BAF
:1013700006D1574B544A9221FF31544803F0A8F844
:101380000923FB61FB69534A944663449B00FB635A
:10139000FB6BFB62EFF3108372B6BB62BB6A7B62CE
:1013A000FB6A3B62C0463B6A1B685A425341DBB250
:1013B000002BF8D1BFF35F8FC046C046C0467B6AA2
:1013C000BB633723FC187B681800FFF70DFD030093
:1013D0002370FFF7FDFA02003B6C9B00D3181B68DB
:1013E0007A6C9A4208D1FFF7F3FA02003B6C9B003B
:1013F000D318394A1A6041E04F23FB1800221A70B3
:101400000023BB642BE03549BA6C13005B009B18CA
:101410009B00CB1806331B785BB23722BA181278C0
:1014200052B29A4218D12D49BA6C13005B009B1836
:101430009B00CB180633FF221A702849BA6C1300A0
:101440005B009B189B00CB180433254A1A804F235E
:10145000FB1801221A7005E0BB6C0133BB64BB6C46
:10146000032BD0D94F23FB181B78002B06D11D4B23
:10147000154AD1214900154803F02AF81A4B0022D9
:101480009A567B689A71184B3722BA1812781A70DC
:10149000FB6BBB61BB6B7B61BB693B61BFF35F8F68
:1014A000C046C0463B6900221A60C0467B69FB60AB
:1014B000FB6883F31088C046C046C046BD4615B0E1
:1014C00090BDC046E4C70010D4C800103CC6001050
:1014D0000CC8001040000034CD010010CC130020D7
:1014E00001BDFFFF18C800106522002080B584B040
:1014F00000AF0B4B7B600B4BFB600023BB6007E036
:10150000FB681A1DFA607A681A60BB680133BB6019
:10151000BB68072BF4D9C046C046BD4604B080BDA9
:101520008080808000E400E080B586B002AF0200D9
:10153000FB1D1A70FFF744FAFB1D1978094B009345
:1015400005230022FFF78CF90300FB60FB68002BEA
:1015500003DBFB681F22D31AFB60FB681800BD4643
:1015600004B080BD3CC8001080B584B000AF786086
:1015700039603B68FB60FB68054A944663449B0006
:101580001A007B681A60C046BD4604B080BDC046E4
:101590004000003480B582B000AF386079603A68AE
:1015A0007B6810001900BD4602B080BD80B584B0D4
:1015B00000AFF8603A607B603A687B68002B05DA20
:1015C000074B084A08483F2102F082FFF9683A6851
:1015D0007B680A604B60C046BD4604B080BDC04613
:1015E000F0C8001004CA00100CC9001080B584B007
:1015F00000AF786001F068FA02000B00082179184A
:101600000800FFF7D3FF7968BA68FB680A604B608F
:101610007868BD4604B080BDB0B58AB000AFF86050
:101620003A607B603A687B6810001900FFF7B2FFF0
:1016300002000B00BA61FB61BB6B1C0000231D00A4
:10164000FA22920000232000290005F07DFA020012
:101650000B0010001900BA69FB6912184B413A627D
:101660007B623A6A7B6A002B04DA01225242094B00
:101670003A627B623A6A7B6A102179180800FFF7A8
:1016800095FFF9683A697B690A604B60F868BD4666
:101690000AB0B0BDFFFFFF7F80B586B002AF7860B3
:1016A00039600823FB181800FFF7A0FF7868BA68B4
:1016B000FB6839680091FFF7AFFF7868BD4604B05A
:1016C00080BD90B583B000AF78607C68FFF740F9CB
:1016D000030019002000FFF747FF7B68FF221A7103
:1016E000BFF35F8FC046C046C046BD4603B090BD45
:1016F00090B583B000AF78607C68FFF729F90300EC
:1017000019002000FFF730FF7B68FF221A717B6809
:1017100000225A71BFF35F8FC046C046C046BD4627
:1017200003B090BD80B582B000AF78600120FFF7B4
:1017300027F903001A007B681100180000F004F874
:10174000C046BD4602B080BD80B584B000AF7860B1
:1017500039603B68FB60FB68074A944663449B0022
:101760001A007B681A60BFF35F8FC046C046C04650
:10177000BD4604B080BDC0464000003480B582B094
:1017800000AF386079603A687B6810001900BD4688
:1017900002B080BD80B584B000AFF8603A607B6075
:1017A0003A687B68002B05DA074B084A08483F2156
:1017B00002F08EFEF9683A687B680A604B60C046AA
:1017C000BD4604B080BDC04640CA00100CCE00101B
:1017D0005CCA0010B0B586B000AF386079603A6876
:1017E0007B6810001900FFF7C9FF02000B003A6187
:1017F0007B617B691C0000231D002300FB600D4BF7
:101800005B6ABB60BA68FB689A420AD3094B9A6A62
:101810003B699A4203D2BA68FB689A4201D001231D
:1018200000E000231A1C01231340DBB21800BD4660
:1018300006B0B0BD0040054080B584B000AF786010
:1018400001F042F902000B00082179180800FFF7A7
:10185000A1FF7968BA68FB680A604B607868BD468A
:1018600004B080BD80B58AB000AFF8603A607B609C
:101870003A687B6810001900FFF780FF02000B0038
:10188000BA61FB61B869F9693A6B7B6B12184B411D
:101890003A627B623A6A7B6A002B04DA0122524286
:1018A000094B3A627B623A6A7B6A10217918080018
:1018B000FFF770FFF9683A697B690A604B60F86866
:1018C000BD460AB080BDC046FFFFFF7F90B589B01E
:1018D00002AFF8603A607B601023FB181800FFF736
:1018E000ABFFFC68386979693A687B6800920193BC
:1018F00002000B002000FFF7B5FFF868BD4607B0F7
:1019000090BDB0B584B000AFB860F9603A607B605C
:101910003A687B6810001900FFF730FF04000D00E3
:10192000BA68FB6810001900FFF728FF02000B00DF
:10193000A41A9D4122002B0010001900BD4604B0DE
:10194000B0BD80B588B004AFB860F9607A603B6024
:1019500000F0B2FABA68FB68182179180978029188
:10196000396801917968009100F090FD030018003A
:10197000BD4604B080BD80B582B000AF786000F095
:101980009BFA02007B681900100000F049FE03007A
:101990001800BD4602B080BD80B582B000AF78604F
:1019A0000A00FB1C1A70FB1C1B78002B05D07B68FF
:1019B0001B7BFA1C12789A4205D9094B094A0A483E
:1019C000682102F085FD7B681968FB1C1A781300FA
:1019D0005B009B18033BCB181800BD4602B080BDCE
:1019E000B4CA001098CD0010D0CA001080B584B0E1
:1019F00000AF786008001100FB1C021C1A70BB1CB1
:101A00000A1C1A70FB1C1A787B6811001800FFF77B
:101A1000C3FF0300FB60FB1C1B78002B05D11F4B91
:101A20001F4A20486F2102F053FDBB1C1B78002B7E
:101A300005D11D4B1A4A1B48702102F049FDFA1CC2
:101A4000BB1C12781B789A4205D1184B144A1548D2
:101A5000712102F03DFDBB1C1A787B681100180053
:101A6000FFF79AFF0300BB60BB68FA1C12789A70FC
:101A7000FB681B78002B04D1FB68BA1C12781A7023
:101A800007E0FB681A78BB685A70FB68BA1C1278CA
:101A90001A70C046BD4604B080BDC04630CB0010B1
:101AA00084CD0010D0CA00103CCB001048CB0010F1
:101AB00090B583B000AF786008001100FB1C021CD9
:101AC0001A70BB1C0A1C1A70FB1C1B78002B02D15D
:101AD000BB1C1B7827E0BB1C1B78002B02D1FB1C16
:101AE0001B7820E07B685C687B689868BB1C1A7870
:101AF000FB1C1B781900A047031E0AD0BB1C1A78D8
:101B0000FB1C19787B681800FFF770FFFB1C1B7823
:101B100009E0FB1C1A78BB1C19787B681800FFF7DA
:101B200065FFBB1C1B781800BD4603B090BD80B597
:101B300084B000AF78607B689B7B002B01D10023D1
:101B400026E00F217B187A68927B1A707B181A782E
:101B50007B6811001800FFF71FFF0300BB60BB6824
:101B60005A787B689A737B689B7B002B02D17B68D9
:101B70000022DA73BB6800229A70BB689A78BB684F
:101B80005A70BB685A78BB681A700F23FB181B7811
:101B90001800BD4604B080BD80B584B000AF786049
:101BA0000A00FB1C1A70FB1C1B78002B05D1164B7E
:101BB000164A1748A52102F08BFCFB1C1A787B689B
:101BC00011001800FFF7E8FE0300FB60FB6800222D
:101BD0009A70FB689A78FB685A70FB685A78FB68C1
:101BE0001A707B68597BFB1C1A787B681800FFF71A
:101BF0005FFF03001A007B685A737B685B7B1800E9
:101C0000BD4604B080BDC04660CB0010E0CD0010E2
:101C1000D0CA001080B582B000AF78607B685B7B73
:101C20001800BD4602B080BD80B582B000AF7860BC
:101C30000A00FB1C1A707B685B7BFA1C12789A42C4
:101C40000AD0FB1C1A787B6811001800FFF7A4FE6D
:101C500003009B78002B01D0012300E000231A1C15
:101C600001231340DBB21800BD4602B080BD000066
:101C700080B582B000AF78600A00FB1C1A70FB1CB4
:101C80001B78002B08D0FB1C1A787B681100180009
:101C9000FFF7CAFF031E05D0174B184A1848F62154
:101CA00002F016FC7B68DB7B002B0AD07B68DA7BBA
:101CB0007B6811001800FFF76FFE0200FB1C1B7809
:101CC00053707B689B7B002B0DD17B68DB7B002BEB
:101CD00005D00C4B094A0A48FB2102F0F9FB7B684E
:101CE000FA1C12789A737B68FA1C1278DA73C04671
:101CF000BD4602B080BDC04664CB001024CE0010AB
:101D0000D0CA001088CB001080B500AF034B5B68D1
:101D10005A1E9341DBB21800BD4680BD241400203A
:101D200080B582B000AF78600A00FB1C1A70FB1C03
:101D30001B78002B06D07B681B681B7BFA1C127873
:101D40009A4205D9094B0A4A0A483C2102F0C0FBD5
:101D50007B689A68FB1C1B7807498C4663441B010F
:101D6000D3181800BD4602B080BDC0469CCB001001
:101D7000A4CD0010C0CB0010FFFFFF0F80B582B0D4
:101D800000AF78600A00FB1C1A70FB1C1B78002B4C
:101D900006D07B681B681B7BFA1C12789A4205D917
:101DA000074B084A0848412102F092FB7B68DA6839
:101DB000FB1C1B78013BD3181800BD4602B080BD48
:101DC0009CCB001034CE0010C0CB0010B0B584B056
:101DD00000AF786008001100FB1C021C1A70BB1CCD
:101DE0000A1C1A707B68FB60FB1C1A78FB681100E8
:101DF0001800FFF795FF03001A685B6810001900D0
:101E0000FFF7BCFC04000D00BB1C1A78FB68110036
:101E10001800FFF785FF03001A685B6810001900BF
:101E2000FFF7ACFC02000B000121AB4204D801D14A
:101E3000A24201D80023191CCBB21800BD4604B041
:101E4000B0BD80B582B000AF0200FB1D1A70BB1D93
:101E50000A1C1A70FB1D1B781A02BB1D1B7813434A
:101E60001800BD4602B080BD80B500AFFFF74CFF43
:101E700003001A0001235340DBB2002B0ED00B4BA2
:101E800018680A4B0A4A102101F01DFA032000F0DD
:101E900005FE064B0321180000F0C4FA054B0A2189
:101EA0001800FFF761FBC046BD4680BD241400202A
:101EB000CD1D00102C22002080B500AFFFF724FFBD
:101EC000031E05D1044B054A05485E2102F000FBC4
:101ED000044B1800BD4680BD0CCC0010B0CD0010E6
:101EE000C0CB001024140020F0B589B000AFF8601A
:101EF0003A607B60382108200B18DB191B78002B17
:101F00001ED0FB681A680B18DB191B78190010002B
:101F1000FFF78AFE03001A0001235340DBB2002BB7
:101F200005D1384B384A3948672102F0D1FA1F23CE
:101F3000FB18382208215218D21912781A7008E0BA
:101F4000FB681B681F22BC181800FFF7F0FD030098
:101F500023701F257B191B78002B4BD07B191A7817
:101F6000FB6811001800FFF7DBFE0300BB61B969D5
:101F70003A687B680A604B60BB69BA6B9A60BB6960
:101F8000FA6BDA60FB681A687B191B78190010007D
:101F9000FFF702FE03001A007B191B78934229D138
:101FA000FB681B7D19001726BC193A687B6808007E
:101FB00000F068FF03002370BB191B78002B11D0C1
:101FC0003C2308229B18DB191B7801225340DBB20B
:101FD000002B07D0FB681A687B191B7819001000CA
:101FE00001F0F0FABB6C002B04D0BB6C1722BA18BE
:101FF00012781A701F23FB181B781800BD4609B011
:10200000F0BDC04630CC0010C8CD0010C0CB0010D1
:10201000F0B5AFB006AF7860D94B7A689200D3586C
:102020008C22BA1813601023FB181800FFF704FC69
:1020300000239822BA18136000220023BA60FB60C4
:1020400000239422BA1813609F23FB1800221A70F1
:102050008C23FB181B685B68FB66EFF3108372B67A
:10206000BB66BB6E7B66FB6E3B66C0463B6E1B6809
:102070005A425341DBB2002BF8D1BFF35F8FC04609
:10208000C046C0467B6E8822BA1813608C26BB19E6
:102090001B681B6887257C191800FFF7BBFD030030
:1020A00023707B191B78002B00D17DE07B191A78F7
:1020B000BB191B6811001800FFF732FE03008022D5
:1020C000B9180B60BB181B681A685B6838697969B6
:1020D000FFF717FC02000B00002B56DC01D1002A91
:1020E00053D18C23FB181B681B687F257C190021AA
:1020F000180001F045FA030023707A198723FB18B2
:1021000012781B789A4205D09E4B9F4A9F488E2199
:1021100002F0DEF980217B181B681A685B68BA60E0
:10212000FB600A00BB181B689B6898217818036045
:10213000BB181B68DB689422BA1813607B181B68F5
:10214000002B05D1924B904A9048922102F0C0F9A1
:102150008723FB181A788C243B191B681100180080
:10216000FFF70CFE020093217B1812781A707F2370
:10217000FB181A787B181B7811001800FFF761FE16
:1021800002003B191B681A610EE08023FB181B68D4
:102190001A685B687968080000F074FE031E03D0BB
:1021A0009F23FB1801221A708C243B191B685B6863
:1021B000FB658823FB181B68BB65FB6D7B65BFF364
:1021C0005F8FC046C0467B6D00221A60C046BB6D63
:1021D0003B653B6D83F31088C046C04698257B194C
:1021E0001B68002B00D111E18723FB181A78932379
:1021F000FB181B7811001800FFF723FE9423FB182F
:102200001A687B191B681100984702000B003A6797
:102210007B673B191B685B68FB64EFF3108372B646
:10222000BB64BB6C7B64FB6C3B64C0463B6C1B6853
:102230005A425341DBB2002BF8D1BFF35F8FC04647
:10224000C046C0467B6C8822BA1813607B6F002B97
:1022500046DA8C22BB181B681B69002B40D0BB18C8
:102260001B681C698723FB181A789323FB181B78BB
:1022700011001800FFF7E5FD03009C4205D0454B17
:10228000414A4248A12102F023F93A6F7B6F0020B6
:102290000021801A994102000B0010001900182338
:1022A000FC18BA68FB68009001912000FFF7DAFA89
:1022B000BA69FB698C217918086800210491012111
:1022C0000391872179180978029194217918096876
:1022D00001919821791809680091FFF705FE73E0D4
:1022E0007B6F002B05DC7B6F002B55D13B6F002BE8
:1022F00052D08C22BB181B681B69002B4CD0BB181A
:102300001B681C698723FB181A789323FB181B781A
:1023100011001800FFF795FD03009C4205D01D4BEE
:10232000194A1A48A42102F0D3F82023FB181800F8
:10233000FFF782FA3A6F7B6F28217C18386A796A36
:102340000092019302000B002000FFF78BFABA6A9B
:10235000FB6A8C21791808680021049101210391FE
:1023600087217918097802919421791809680191D7
:102370009821791809680091FFF7B6FD24E0C0465E
:102380001020002058CC0010F0CD0010C0CB001061
:1023900070CC00107CCC00108C243B191B681A6890
:1023A00087257B191B7819001000FFF761FC7B194A
:1023B0001A783B191B6811001800FFF7DFFC0300B7
:1023C0001A780132D2B21A708C217B181B68002255
:1023D0001A617B181B685B68FB638823FB181B680A
:1023E000BB63FB6B7B63BFF35F8FC046C0467B6BF9
:1023F00000221A60C046BB6B3B633B6B83F31088C3
:10240000C046C0469F23FB1801221A709F23FB1869
:102410001B78002B00D006E6C046C046BD4629B05A
:10242000F0BDC04680B584B000AF786039603B68CD
:10243000180000F009FE124A3B681100180000F075
:1024400087FCFEF785FA0300FB60FB680D4A9446A3
:1024500063449B001A007B685A603B68DAB27B6871
:102460001A75D0231B061B68DAB27B685A75064BB7
:102470003A6892007968D150C046BD4604B080BD2C
:10248000112000104000003410200020B0B59EB094
:1024900006AF7861BA60FB601F23FB1800221A7038
:1024A0005B23FB1800221A707B695B687B64EFF387
:1024B000108372B63B643B6CFB637B6CBB63C046B2
:1024C000BB6B1B685A425341DBB2002BF8D1BFF300
:1024D0005F8FC046C046C046FB6B7B6553257C19A9
:1024E000BA68FB6878691F2179180491002103916B
:1024F00000210291796F0191396F0091FFF7F4FC8F
:10250000030023707B191B78002B0BD07B191A78E2
:102510007B6911001800FFF731FC02005B23FB18F8
:1025200012781A707B695B687B637B6D3B637B6BA6
:10253000FB62BFF35F8FC046C046FB6A00221A6091
:10254000C0463B6BBB62BB6A83F31088C046C04683
:102550005323FB181B78002B02D101235B425AE066
:102560001F23FB181B78002B0BD15323FB181A7861
:102570005B23FB181B7811001800FFF762FC0300B7
:1025800000E00023FB651F23FB181B78002B41D0C4
:102590007823FB181B78002B3CD0796FFA6D3B6FCA
:1025A0001000984702000B00BA64FB64BB6CFA6C25
:1025B000134302D10023FB652CE0FB6C002B13DAE4
:1025C000BA6CFB6C00200021801A994102000B00BC
:1025D000100019000823FC18BA68FB6800900191EC
:1025E0002000FFF73FF95BE72023FB181800FFF7F7
:1025F00023F9BA6CFB6C3C00386A796A009201934B
:1026000002000B002000FFF72DF93A687B68BA60E2
:10261000FB6045E7FB6D1800BD4618B0B0BD00007B
:10262000F0B58FB000AF786039603B68002B01D106
:10263000002382E03723FB1800221A707B685B6856
:10264000BB62EFF3108372B67B627B6A3B62BB6A4C
:10265000FB61C046FB691B685A425341DBB2002B49
:10266000F8D1BFF35F8FC046C046C0463B6A3B63AC
:102670002F217B183A681A707B681A687B181B78C0
:1026800019001000FFF7D0FA031E35D07B681B69D4
:102690003A689A4206D12B4B2B4A2C21FF312B480A
:1026A00001F016FF3B681A0A2E243B191A702F25D9
:1026B0007B191A787B6811001800FFF75FFB030095
:1026C0001B783A1912789A421ED17B681A6837260D
:1026D000BC197B191B781900100000F073FF030070
:1026E0002370BB191B78002B0ED1194B164A992168
:1026F0004900164801F0ECFE7B681B693A689A4273
:1027000002D17B6800221A617B685B68BB613B6B0E
:102710007B61BB693B61BFF35F8FC046C0463B69CD
:1027200000221A60C0467B69FB60FB6883F3108857
:10273000C046C0463723FB181B781800BD460FB0B3
:10274000F0BDC046E8CC001048CE0010C0CB001051
:102750000CCD001080B582B000AF78607B685B7DE7
:102760001800BD4602B080BD80B58CB000AF786067
:1027700039601C4B1B68BB61EFF3108372B67B6141
:102780007B693B61BB69FB60C046FB681B685A42C2
:102790005341DBB2002BF8D1BFF35F8FC046C04678
:1027A000C0463B69FB620F4B1B68BB62FB6A7B62E6
:1027B000BB6A3B62BFF35F8FC046C0463B6A0022E4
:1027C0001A60C0467B6AFB61FB6983F31088C046D0
:1027D000C04640BFC0460022002310001900BD467D
:1027E0000CB080BD2C22002080B596B002AF3860BE
:1027F0007960EFF30583BB63BB6B002B03D04A4BBF
:10280000180001F08BFE3A687B6810001900FEF793
:10281000B5FF02000B003A647B643A6C7B6C0620C7
:102820004042C11712184B41BA64FB64FA6C7B6CCE
:102830009A4207D8FA6C7B6C9A4207D1BA6C3B6C0F
:102840009A4203D900220023BA64FB64BA6CFB6C81
:10285000082179180800FEF79DFF1023FB181800C7
:10286000FEF7EAFFBA68FB6838697969FFF749F84B
:1028700002000B00002B02DC4BD1002A49D02B4A6E
:10288000B868F968002300930023FFF75AF8031E85
:102890003FDB31E0264B1B687B62EFF3108372B69F
:1028A0003B623B6AFB617B6ABB61C046BB691B68DC
:1028B0005A425341DBB2002BF8D1BFF35F8FC046C1
:1028C000C046C046FB69FB63194B1B687B63FB6B0F
:1028D0003B637B6BFB62BFF35F8FC046C046FB6A06
:1028E00000221A60C0463B6BBB62BB6A83F3108850
:1028F000C046C04620BFC046BA68FB681000190039
:10290000FEF768FF03001A0001235340DBB2002BDF
:10291000C0D13A687B681000190000F03BF9C0464E
:10292000BD4614B080BDC04634CD001069270010EC
:102930002C22002080B584B000AF38607960082375
:10294000F9183A687B680800FEF7C0FFBA68FB68B0
:1029500010001900FFF748FFC046BD4604B080BD17
:10296000B0B582B000AF78607B681C0000231D000A
:10297000FA22920000232000290004F0E5F802006A
:102980000B0010001900FFF7D5FFC046BD4602B08E
:10299000B0BD000080B586B002AF38607960EFF35B
:1029A0000583BB60BB68002B08D0C0463A687B68D3
:1029B00010001900FEF70EFF030022E0134A3868EA
:1029C0007968002300930023FEF7BBFF0300FB6040
:1029D000FB68002B08DCC0463A687B6810001900D1
:1029E000FEF7F8FE03000CE020BFC046FB681800AD
:1029F000FEF7C1FF3A687B6810001900FEF7EAFE97
:102A000003001800BD4604B080BDC0466927001011
:102A100080B582B000AF386079603A687B6810009A
:102A20001900BD4602B080BD80B584B000AFF8602B
:102A30003A607B603A687B68002B05DA074B084AEE
:102A400008483F2101F044FDF9683A687B680A6054
:102A50004B60C046BD4604B080BDC04660CE00108D
:102A600084CF00107CCE001080B582B000AF7860BB
:102A7000C046BD4602B080BD80B582B000AF786070
:102A80007B681F221A40044B012191400A001A6002
:102A9000C046BD4602B080BD80E200E080B582B095
:102AA00000AF78607B681800FFF7DEFF044A7968A2
:102AB000044B1800FDF7A1FEC046BD4602B080BD24
:102AC000D4CE001064220020F0B587B000AF154EC0
:102AD000766A7E61134EB66A3E61124E766AFE6079
:102AE0007E69B446FE68B44502D0FE687E61F1E7B7
:102AF000C0467E693E6000267E603E683300002648
:102B000032003E69300000263100160006433400D2
:102B10000B431D0022002B0010001900BD4607B01A
:102B2000F0BDC0460040054080B588B000AF3860B9
:102B30007960FFF7C9FF02000B003A617B613869D9
:102B400079693A687B6812184B41BA61FB617A690E
:102B5000FB699A4207D87A69FB699A4208D13A69B7
:102B6000BB699A4204D901225242D317BA61FB6170
:102B7000BA69FB69082179180800FFF755FFBA68A0
:102B8000FB681000190000F005F8C046BD4608B00B
:102B900080BD0000B0B588B000AF386079603A6899
:102BA0007B6810001900FFF733FF02000B003A6149
:102BB0007B617B691C0000231D002300FB600F4B21
:102BC0005B6AFB6103E00D4B5B6AFB61C046FA691F
:102BD000FB689A42F7D303E0084B5B6AFB61C0468F
:102BE000FA69FB689A4204D1044B9A6A3B699A429B
:102BF000F2D3C046BD4608B0B0BDC0460040054057
:102C000080B582B000AF78607B681800BD4602B026
:102C100080BD000080B590B000AFEFF305833B614D
:102C20003B69103BBB63BB6B1800FFF71DFF002324
:102C3000FB630A237B617B693F4A944663449B00A4
:102C40007B637B6B7B62EFF3108372B63B623B6A04
:102C5000FB617B6ABB61C046BB691B685A4253413A
:102C6000DBB2002BF8D1BFF35F8FC046C046C04631
:102C7000FB693B63314B0121BA6B91400A005A63F7
:102C80000122BB6B9A4013002D4AFA62BB62FB6AB9
:102C9000C02292011343BA6A1A60C046294B1B78BE
:102CA0001A00BB6BDA4013000122134024D0234BDF
:102CB0005A6A254BB96B8900CB589A4212D3234BE1
:102CC000BA6B9200D358FB630122BB6B9A4013008E
:102CD000DBB2DB43DBB21B4A12781340DAB2194B8A
:102CE0001A7009E0154A1549BB6B04339B009A58CA
:102CF000BB6B04339B005A507B6BFB603B6BBB6030
:102D0000FB687B60BFF35F8FC046C0467B680022D4
:102D10001A60C046BB683B603B6883F31088C046BE
:102D2000C046FB6B002B03D0BA6BFB6B10009847BF
:102D3000C046BD4610B080BD400000340040054094
:102D40003C4005406922002038220020401A002023
:102D500080B590B000AF786039607B681800FFF7ED
:102D600083FE7B681800FFF74BFF0300FB630A2319
:102D70003B623B6A3E4A944663449B00BB63BB6B29
:102D80003B63EFF3108372B6FB62FB6ABB623B6B83
:102D90007B62C0467B6A1B685A425341DBB2002B00
:102DA000F8D1BFF35F8FC046C046C046BB6A7B63A5
:102DB0003B68002B26D0FB6B1800FDF7F5FE0200E8
:102DC0002C4B9A4218D02B4AFB6B11001800FDF7D0
:102DD000FFFEFB6B01211800FDF74EFE01227B6810
:102DE0009A401300244AFA61BB61FB698022920178
:102DF0001343BA691A60C046204B7A68920039685A
:102E0000D1501CE01D4B7A6892000021D150012264
:102E10007B689A401300DBB2DB43DBB2184A1278BE
:102E20001340DAB2164B1A70124AFB6B11001800ED
:102E3000FEF758F9FB6B00211800FDF71DFEBB6B78
:102E40007B617B6B3B617B69FB60BFF35F8FC0463F
:102E5000C046FB6800221A60C0463B69BB60BB6885
:102E600083F31088C046C046C046BD4610B080BD42
:102E700040000034152C001038400540401A002056
:102E800069220020B0B596B000AFF8603A607B6070
:102E9000FFF71AFE02000B00BA64FB643A687B6815
:102EA00010001900FFF7B4FD02000B003A647B64C8
:102EB0007A6CFB6C9A420CD87A6CFB6C9A4203D108
:102EC0003A6CBB6C9A4204D85723FB1801221A7043
:102ED000A4E05723FB1800221A700A233B623B6AC6
:102EE000524A944663449B00FB63FB6B3B63EFF3E6
:102EF000108372B6FB62FB6ABB623B6B7B62C046AF
:102F00007B6A1B685A425341DBB2002BF8D1BFF3F6
:102F10005F8FC046C046C046BB6ABB633723FB1801
:102F2000434A12781A700122FB689A401300DAB201
:102F30003F4B1B781343DAB23D4B1A703D4B0121D6
:102F4000FA6891400A005A633A493A6CFB680433C4
:102F50009B005A507B6C1C0000231D002100364B47
:102F6000FA689200D150334B1B6A0121FA689140F4
:102F70000A0013400DD12F4B1B6C0121FA689140C0
:102F80000A00134035D12D4B2D4A2E48C52101F0A2
:102F90009FFAFFF799FD02000B00796C994228D83F
:102FA000796C994202D1396C914222D85723FB188F
:102FB00001221A701E4B1B7837243A1912789A4254
:102FC00017D01C4B0121FA6891400A001A62194B74
:102FD0000121FA6891400A005A63FB681800FFF764
:102FE0000FFE03001800FFF747FD114B3A19127846
:102FF0001A70FB6BFB61BB6BBB61FB697B61BFF351
:103000005F8FC046C0467B6900221A60C046BB691C
:103010003B613B6983F31088C046C0465723FB18C9
:103020001B781800BD4616B0B0BDC0464000003445
:103030006922002000400540382200200CCF0010FB
:103040009CCF001030CF001080B58EB000AF7860FC
:103050007B681800FFF708FD0A23FB60FB68254A20
:10306000944663449B007B637B6BFB61EFF31083AF
:1030700072B6BB61BB697B61FB693B61C0463B6962
:103080001B685A425341DBB2002BF8D1BFF35F8F6C
:10309000C046C046C0467B693B63174B01217A6836
:1030A00091400A001A6201227B689A401300DBB249
:1030B000DB43DBB2114A12781340DAB20F4B1A70BD
:1030C0007B6BFB623B6BBB62FB6A7B62BFF35F8F18
:1030D000C046C0467B6A00221A60C046BB6A3B629B
:1030E0003B6A83F31088C046C046C046BD460EB05A
:1030F00080BDC046400000340040054069220020E9
:1031000080B582B000AF78600A00FB1C1A70FB1C0F
:103110001B78002B05D07B681B7BFA1C12789A4227
:1031200005D9094B094A0A48682101F0D1F97B68A1
:103130001968FB1C1A7813005B009B18033BCB1823
:103140001800BD4602B080BDB8CF00107CD1001081
:10315000D4CF001080B584B000AF786008001100B3
:10316000FB1C021C1A70BB1C0A1C1A70FB1C1A7870
:103170007B6811001800FFF7C3FF0300FB60FB1C16
:103180001B78002B05D11F4B1F4A20486F2101F0EF
:103190009FF9BB1C1B78002B05D11D4B1A4A1B48FD
:1031A000702101F095F9FA1CBB1C12781B789A4229
:1031B00005D1184B144A1548712101F089F9BB1C3F
:1031C0001A787B6811001800FFF79AFF0300BB60B4
:1031D000BB68FA1C12789A70FB681B78002B04D12C
:1031E000FB68BA1C12781A7007E0FB681A78BB6893
:1031F0005A70FB68BA1C12781A70C046BD4604B0FB
:1032000080BDC04634D0001068D10010D4CF00106B
:1032100040D000104CD0001090B583B000AF786063
:1032200008001100FB1C021C1A70BB1C0A1C1A703F
:10323000FB1C1B78002B02D1BB1C1B7827E0BB1C9E
:103240001B78002B02D1FB1C1B7820E07B685C689C
:103250007B689868BB1C1A78FB1C1B781900A04778
:10326000031E0AD0BB1C1A78FB1C19787B68180057
:10327000FFF770FFFB1C1B7809E0FB1C1A78BB1CD6
:1032800019787B681800FFF765FFBB1C1B781800D6
:10329000BD4603B090BD80B582B000AF78607B685A
:1032A0005B7B1800BD4602B080BD80B582B000AF28
:1032B00078607B680121180000F062F903001800B3
:1032C000BD4602B080BD80B584B000AFF860B96083
:1032D0007A603B60BB68DAB2FB681A73FB687A6895
:1032E0005A60FB683A689A60FB68180000F004F8BE
:1032F000C046BD4604B080BD90B585B000AF7860D3
:103300007B6800225A737B6801229A737B681A7B60
:103310007B68DA730F23FB1801221A7013E00F2465
:103320003B191A787B6811001800FFF7E9FE0200CC
:1033300021007B181B780133DBB253707B181A789D
:103340007B1801321A707B681B7B0F22BA18127827
:103350009A42E4D37B681A7B7B6811001800FFF760
:10336000CFFE030000225A70C046BD4605B090BD96
:10337000F0B585B000AF78600A00FB1C1A70FB1C2A
:103380001B78002B0AD0FB1C1A787B6811001800F0
:10339000FFF7B6FE03005B78002B02D1FB1C1B7805
:1033A0004AE00F26BB19FA1C12781A70FB1C1A7817
:1033B0007B6811001800FFF7A3FE02000E257B19A1
:1033C00052781A707B191A787B6811001800FFF781
:1033D00097FE02000D23FB1852781A707B191A7899
:1033E0007B6811001800FFF78BFE04000023637058
:1033F000BB191A787B6811001800FFF781FE0300E3
:1034000062785A707B191A78BB1919787B68180092
:10341000FFF702FF03001C000D23FB181A787B68DE
:1034200011001800FFF7A4FF03001A007B682100B9
:103430001800FFF7F1FE03001800BD4605B0F0BD0F
:1034400090B585B000AF786008001100FB1C021C2D
:103450001A70BB1C0A1C1A70FB1C1B78002B05D1B0
:10346000414B424A4248382101F032F8FB1C1A789D
:103470007B6811001800FFF743FE03005B78002B08
:1034800005D03C4B394A3A483A2101F021F8FB1C5F
:103490001A787B6811001800FFF732FE03009B7852
:1034A000002B05D0344B314A31483B2101F010F854
:1034B000FB1C1A787B6811001800FFF721FE03003F
:1034C0001A780F23FC187B6811001800FFF750FFD3
:1034D00003002370BB1C1B78002B24D07B68DB7B94
:1034E000002B0AD07B68DA7B7B6811001800FFF79D
:1034F00007FE0200FB1C1B7853707B689B7B002B34
:103500000DD17B68DB7B002B05D01C4B174A18487C
:10351000422100F0DDFF7B68FA1C12789A737B6809
:10352000FA1C1278DA730F22BB181B78002B09D013
:10353000BB181A787B6811001800FFF7E1FD030043
:1035400000229A70FB1C1A787B6811001800FFF7A4
:10355000D7FD030000225A700F23FB181B781800B8
:10356000BD4605B090BDC04664D0001088D10010A3
:103570006CD00010B8D00010E0D0001004D10010C2
:10358000B0B584B000AF78600A00FB1C1A700F253C
:103590007C197B681800FFF77EFE03002370FB1C7C
:1035A0001A782C003B1919787B681800FFF748FF40
:1035B00003001A007B685A733B191B781800BD463C
:1035C00004B0B0BDB0B588B000AF78600A00FB1C95
:1035D0001A70FB1C1B78002B01D1002390E07B6844
:1035E0005B7BFA1C12789A4205D17B681800FFF7C2
:1035F0005CFE012384E0FB1C1A787B681100180034
:10360000FFF77EFD0300BB61BB699B78002B01D1F6
:10361000002375E0BB699A787B6811001800FFF7FA
:103620006FFD03007B617B691B78FA1C12789A425C
:1036300004D1BB695A787B691A7035E01F23FB18E7
:103640007A6912781A701E23FB1800221A701F2341
:10365000FB181A787B6811001800FFF751FD030072
:103660003B613B695B78FA1C12789A4208D1BB69CE
:103670005A783B695A701E23FB1801221A7008E021
:103680001F217B183A6952781A707B181B78002B1F
:10369000DDD11E23FB181B78002B05D11A4B1B4ACA
:1036A0001B486B2100F014FFBB6900229A70BB69B4
:1036B0009A78BB695A700F257C19FB1C19787B68B6
:1036C00001221800FFF7BCFE030023707B685B7BC0
:1036D0007A1912789A4205D10E4B0C4A0C48712186
:1036E00000F0F6FE7B68597B0F23FB181A787B6885
:1036F0001800FFF791FD03001A007B685A7301233D
:103700001800BD4608B0B0BD18D100109CD1001003
:103710006CD0001020D1001080B582B000AF78606E
:103720007B68054A944663445A425341DBB2180011
:10373000BD4602B080BDC0460080FCBF80B582B0EF
:1037400000AF78607B681800FFF7E6FF7B68180021
:10375000BD4602B080BD000080B584B000AF786087
:10376000074BFB607B68BB60FB68802292011343C0
:10377000BA681A60C046C046BD4604B080BDC046A7
:1037800000C0004080B584B000AF78600B4BFB6098
:103790007B68BB60FB68C02292011343BA681A6061
:1037A000C04600E0C046054B9B68DB437A68134087
:1037B000F8D1C046C046BD4604B080BD00C0004040
:1037C00080B582B000AF78607B681800FFF7A4FF77
:1037D000031E02D080231B0401E08023DB031800BA
:1037E000FFF7BAFFC046BD4602B080BD80B582B0CB
:1037F00000AF78607B681800FFF78EFF031E02D0D1
:1038000080231B0401E08023DB031800FFF7BAFFCD
:10381000C046BD4602B080BD80B586B000AF7860BE
:103820003960062000F072FB031E01D1002339E04D
:103830007B681800FFF7C4FF7B681800FFF7D6FF0E
:103840007B680021180000F03BF93A687B681100A2
:10385000180000F0B7F803007B61786800230122AC
:10386000082100F003F97B681800FFF767FF0300E9
:103870002C333B611023FB603B6980229201134390
:10388000FA681A60C0467B681800FFF757FF03000C
:10389000064A1A637B681800FFF750FF03000322F3
:1038A0009A647B691800BD4606B080BD0103000024
:1038B000B0B58AB000AF78607B681800FFF73EFFB4
:1038C00003001B6B7B627B6A012213403DD07B6847
:1038D0001800FFF733FF03003033FB601D4BBB6064
:1038E000FB68C02292011343BA681A60C0467B6825
:1038F0001800FFF723FF03005B6A3B627B68180038
:10390000FFF71CFF03009B6AFB613B6A9B01FA699E
:10391000D318BB61BB699B02BB61062000F0F6FABD
:1039200003000D49180002F0ABFA03007B617969CE
:10393000B86902F0A5FA03003B613B691C00002353
:103940001D0020002900FFF7EFF87B6A1800BD4634
:103950000AB0B0BD010300004E0E000080B58AB071
:1039600000AFF860B9607A60FB681800FFF7A0FF4D
:1039700003007B62FB681800FFF7E0FE03002C33B6
:103980003B62BB68FB617B68BB613B6A1A68FB6991
:103990005340BA6913403A6A7A613B617B6980227D
:1039A000520113433A691A60C046C046FB681800CA
:1039B000FFF7C4FE03007A6A1A63C046BD460AB028
:1039C00080BD000080B586B000AF78603960062009
:1039D00000F09CFA0300DB003968180002F050FA8E
:1039E0000300FB60FB68DB097B617B69002B04D172
:1039F00001237B6100233B610EE07B69194A9342FE
:103A000004D9194B7B6100233B6105E0FB687F22F1
:103A1000134001335B083B617B681800FFF78EFEA3
:103A200003007A695A627B681800FFF787FE03007B
:103A30003A699A627B68002200211800FFF78EFF26
:103A4000062000F063FA030098007B699A013B6945
:103A5000D318190002F014FA03001800BD4606B08E
:103A600080BDC046FEFF0000FFFF000080B584B0AF
:103A700000AFF860B9607A601A00FB1C1A70BB686E
:103A8000053B5A017B68013BDB001A43FB1C1B789A
:103A9000002B01D0022300E000231A43FB1C1B78FB
:103AA000012B01D1042300E0002313431900FB681C
:103AB0006E221800FFF752FFC046BD4604B080BD1D
:103AC00090B583B000AF78600A00FB1C1A70FB1C35
:103AD0001B78002B01D00A2401E080235C007B6866
:103AE0001800FFF719FE0200034B5200211CD152AF
:103AF000C046BD4603B090BD4822002080B582B0CC
:103B000000AF78607B68033BFDD27B60C046BD465A
:103B100002B080BD80B582B000AF0200FB1D1A70FC
:103B2000FB1D1B78052B03D0FB1D1B78042B01D13B
:103B3000012300E000231A1C01231340DBB218000C
:103B4000BD4602B080BD0000F0B5A3B000AF396340
:103B5000FA62BB620F2328229B18DA19031C137028
:103B6000BA6A982308215B18DB191B689A4205D2B0
:103B70008F4B904A9048332100F0AAFC98230822EA
:103B80009B18DB191A68BB6A9A4201D900230AE123
:103B9000BB6A3B6200237B623A6A7B6A1100090EB2
:103BA000F96113001B02BB61982308229B18DB19E3
:103BB0001B683B6100237B613A697B69B869F969DD
:103BC00002F09CF902000B00130084203A181360E5
:103BD0000F2328229B18DB191A7813005B009B180F
:103BE0009B00764A9446634480217A1813607B18C0
:103BF0001B685B683A1812689A4204D97B181B68E4
:103C00003A1812685A600F2328229B18DB191B7878
:103C10001800FFF77FFF031E19D03B6B012B16D155
:103C20008023FB181B68BB6703237B67BB6FC02225
:103C3000920113437A6F1A60C04600E0C0468023A9
:103C4000FB181B689B6801221340F7D02CE08023EF
:103C5000FB181B683B6780231B01FB663B6FC02280
:103C600092011343FA6E1A60C0460F2128268B1961
:103C7000DB191A78524B9200D358002B14D0504BBA
:103C800058698B19DB191A784D4B9200D3581900DB
:103C900002F0F6F803000133FB67FA6F13005B00D4
:103CA0009B181800FFF72AFF8026BB191A68FB6AC9
:103CB0005B01BA667B66E0233B66BB6E1A687B6E6F
:103CC00053403A6E1340BA6EFA65BB65FB6D8022B5
:103CD00052011343BA6D1A60C046C0460F23282212
:103CE0009B18DB191B781800FFF714FF031E23D065
:103CF000BB191B687B653B6B3B650323FB647B6DDA
:103D00001A683B6D5340FA6C13407A6DBA647B6459
:103D1000BB6C8022520113437A6C1A60C046C046C5
:103D200000E0C0468023FB181B689B6801213A6BAA
:103D300091400A001340F4D080217B181B683B643B
:103D400080231B01FB633B6C802292011343FA6BBF
:103D50001A60C0467B181B6884203A1812685A60A3
:103D6000BB6ABB600023FB60BA68FB6811000D0EE4
:103D700013001C023B181B683B6000237B603A6801
:103D80007B682000290002F0B9F802000B00100047
:103D900019000F2328229B18DB191A780100084B01
:103DA0009200D15001231800BD4623B0F0BDC0469B
:103DB000B4D10010C4D20010C8D10010008000405F
:103DC000641B002080B588B002AF0C2000F0A4F97D
:103DD000FCF79EFC031E11D000237B6107E03F4BE4
:103DE0007A6992003E49D1507B6901337B617B69DE
:103DF000092BF4D9394B3B4A5A626CE03A4B00220A
:103E00009A6700F05BFA394B3B610123FB603B6929
:103E1000C02292011343FA681A60C04600E0C0460F
:103E2000314B5B6C012BFAD1314BBB6003237B60C0
:103E3000BB68C022920113437A681A60C04600E052
:103E4000C046294B9B6B012BFAD12A4A2A480223F0
:103E500000930623012100F09FF8284A28480523F3
:103E600000930523012100F097F8264A254B009383
:103E70001300002202210420FFF766FE224A224B93
:103E800000931300002201210520FFF75DFE144A74
:103E9000134B00931300002200210720FFF754FE6C
:103EA0000F4A0F4B00931300002200210820FFF758
:103EB0004BFE0B4A0B4B00931300002200210920FC
:103EC000FFF742FE104A104B00931300002200211E
:103ED0000620FFF739FEBD4606B080BD641B0020FA
:103EE000006CDC021BB70000008000403C800040FA
:103EF00030800040002F685900800240008C8647C7
:103F000000C00240001BB7004059730780B582B063
:103F100000AF0200FB1D1A70FB1D1A78034B9200C4
:103F2000D3581800BD4602B080BDC046641B0020B7
:103F300080B584B000AF7860074BFB607B68BB60E6
:103F4000FB68802292011343BA681A60C046C046DB
:103F5000BD4604B080BDC04600C0004080B584B0FE
:103F600000AF78600B4BFB607B68BB60FB68C022D6
:103F700092011343BA681A60C04600E0C046054B80
:103F80009B68DB437A681340F8D1C046C046BD4603
:103F900004B080BD00C0004080B58EB000AFF860B6
:103FA000B9607A603B60B968514801F069FF03006D
:103FB0007B637B684F4A934203D97B684E4A9342A6
:103FC00005D94E4B4E4A4F48112100F081FA796BCA
:103FD000786801F055FF03003B633B6B0F2B04D95E
:103FE0003A6BA0235B009A4205D9474B444A4548A7
:103FF000192100F06DFA3B68002B08D03B68072BB5
:1040000005D83B6C002B02D03B6C072B05D93F4BEE
:104010003B4A3C481C2100F05BFA7B681B097A6B29
:104020009A4205D93A4B364A3648232100F050FAD5
:104030003B681A043B6C1B031343FB62FB681B6861
:10404000002B15DAFB681B683F221340BA689A42BE
:104050000ED1FB689B681B051B0D3A6B9A4207D17A
:10406000FB68DA68EE23DB021340FA6A9A423AD020
:10407000FB68284A934202D180239B0101E0802300
:104080005B01BB62BB6A1800FFF752FFBB6A1800F6
:10409000FFF764FFFB68BA681A60FB683A6B9A60C6
:1040A00021237B62FB6804333B627B6AFB613B6AD2
:1040B000C02292011343FA691A60C04600E0C0466C
:1040C000FB681B68002BFADAFB68FA6ADA60FB68A7
:1040D0000433BB6108237B61BB69C0229201134397
:1040E0007A691A6000E0C046BD460EB080BDC04689
:1040F000001BB7007F17B42C00105E5FD4D20010F5
:1041000008D4001034D3001084D30010A0D30010C2
:10411000ECD3001000C0024080B582B000AF7860E0
:10412000044B7A68802189000A43DA62C046BD46A2
:1041300002B080BD0080054080B500AF034A044B4B
:104140001B685360C046BD4680BDC0460080054028
:104150000020002080B590B000AF78600A00FB1C02
:104160001A70344B3B638023DB05FB623B6BC02240
:1041700092011343FA6A1A60C0462F4BBB632F4B60
:104180007B63BB6B8022920113437A6B1A60C0463B
:10419000E023DB04FB63FB1C1B78002B0AD0254BC0
:1041A000BB62FB6B7B62BB6A8022920113437A6A1B
:1041B0001A600AE01F4B3B62FB6BFB613B6AC0224B
:1041C00092011343FA691A60C0467B68002B0BD139
:1041D000184BBB6180231B067B61BB698022920167
:1041E00013437A691A6020E07A6813005B019B1A16
:1041F0009B009B181B011A00114B1A60104B1A6888
:1042000080235B049A4202D30D4B0E4A1A60FFF7DB
:1042100093FF084B3B618023DB05FB603B698022F9
:1042200092011343FA681A60C046C046BD4610B0FA
:1042300080BDC0460080054008000140FCFF010031
:1042400000200020FFFFFF0080B586B000AFF860BF
:10425000B9607A60164B7B618023DB053B617B692B
:10426000C022920113433A691A60C046FB68002BD2
:1042700012D0FB6801221343FB600D4B0D4ADA613B
:104280000B4BFA680C494A401A62094BBA685A62E9
:10429000074BFA689A6202E0054B0022DA617B68FC
:1042A00000211800FFF756FFC046BD4606B080BD8E
:1042B00000800540D3C007B02D3FF84F80B582B0D5
:1042C00000AF0E4BAA2212011A600C4B2F22DA60AB
:1042D0000A4B7B600A4B3B607B6880229201134350
:1042E0003A681A60C046C046044B5B68002BFBDA94
:1042F000C046C046BD4602B080BDC0460040024038
:1043000000B0FA0080B500AF00BEC046BD4680BD1B
:1043100080B584B000AF7860074BFB607B68BB6002
:10432000FB68802292011343BA681A60C046C046F7
:10433000BD4604B080BDC04600C0004080B584B01A
:1043400000AF78600B4BFB607B68BB60FB68C022F2
:1043500092011343BA681A60C04600E0C046054B9C
:104360009B68DB437A681340F8D1C046C046BD461F
:1043700004B080BD00C0004080B588B000AF3D4BA8
:104380001800FFF7C5FF3C4B1800FFF7D7FF3B4B6A
:10439000FB6105E0FB691B689847FB690433FB611F
:1043A000FA69374B9A42F5D3FFF70CFD354B1800ED
:1043B000FFF7C4FF344B3B6140233A6993673A6986
:1043C00053673A6913673A69D366304BBB6120E0A3
:1043D000BB691B68002B13D0BB691B68012B05D080
:1043E0002B4B2C4A2C48872100F072F8BB69BB602C
:1043F000BB681800FDF77CF9BB680833BB6108E0B7
:10440000BB69FB60FB681800FDF75BF9FB680833CC
:10441000BB61BA69214B9A42DAD3214B9B681A00DF
:10442000204B18001100C0231A0002F07DFC1C4B29
:104430001C4A9A60EFF305837B607B68002B01D0F8
:10444000FFF760FFFCF760FAFDF750F8FDF70CFD91
:10445000154B7B6105E07B691B6898477B690433DA
:104460007B617A69114B9A42F5D3C046C046BD467E
:1044700008B080BDBFCDFBFEFE7F3C00C014002015
:10448000D0140020FFFFFF0100F00140B81400200D
:1044900088D4001070D50010A8D40010C0140020DB
:1044A00000ED00E000000020D0140020D81400200F
:1044B00080B582B000AF7860FFF724FFFCE780B5DD
:1044C00082B000AF78607B681800FFF7F1FF000052
:1044D000B0B586B002AFF860B9607A603B607B68C7
:1044E000002B01D00A4B00E00A4B7A68002A01D069
:1044F0007A6800E0074ABD68FC683968064801929E
:1045000000932B00220002F0ADFE0120FFF7D0FF48
:10451000FCD400100CD5001010D500100FB480B5DD
:1045200082B000AF0B4B180002F0B0FD3B69002BCE
:104530000CD01423FB187B607A683B6911001800CB
:1045400002F062FE044B180002F0A0FD0120FFF70C
:10455000AFFFC04650D5001060D5001080B584B0C4
:1045600000AFB9607A603B600F23FB18021C1A7021
:10457000C046BD4604B080BD80B584B000AFB96010
:104580007A603B600F217B18021C1A7008007B18B0
:104590001B78002B07D0BB681A68BB6859683B18AA
:1045A0001B7818009047C046BD4604B080BD80B55A
:1045B00084B000AF786039607B68FB6002E0FB6824
:1045C0000133FB60FB681B78002B04D03B685A1E4C
:1045D0003A60002BF3D1FA687B68D31A1800BD4605
:1045E00004B080BD80B582B000AF0200FB1D1A7020
:1045F000FB1D1B782F2B05D9FB1D1B78392B01D8F0
:10460000012300E000231A1C01231340DBB2180031
:10461000BD4602B080BD80B584B000AF7860002395
:10462000FB600EE0FA6813009B009B185B0018000B
:104630007B681B68591C7A6811601B78C318303B73
:10464000FB607B681B681B781800FFF7CBFF031E1D
:10465000E8D1FB681800BD4604B080BD90B587B0B6
:1046600000AFF860B9607A603B607B683B617B6B50
:104670000222134024D17B6B0122134020D1FB6A1C
:104680007B610AE07A68531C7B603B68B968FC6810
:104690002020A0477B6901337B617A693B6B9A429A
:1046A000F0D30DE0FB6A013BFB62BA6AFB6AD318E8
:1046B00018787A68531C7B603B68B968FC68A0472F
:1046C000FB6A002BEED17B6B022213400ED007E079
:1046D0007A68531C7B603B68B968FC682020A0475F
:1046E0007A683B69D31A3A6B9A42F1D87B68180012
:1046F000BD4607B090BD90B589B004AFF860B96011
:104700007A603B60BB6B0222134034D17B6B002B81
:1047100017D0BB6B0122134013D02823FB181B7842
:10472000002B03D1BB6B0C2213400AD07B6B013BE7
:104730007B6306E07B6A5A1C7A623A6AD31830229D
:104740001A707A6A3B6B9A420AD27B6A1F2BF1D9A4
:1047500006E07B6A5A1C7A623A6AD31830221A70D1
:10476000BB6B0122134006D07A6A7B6B9A4202D25D
:104770007B6A1F2BEDD9BB6B1022134056D0BA6B4E
:104780008023DB00134016D17B6A002B13D07A6A9A
:104790003B6B9A4203D07A6A7B6B9A420BD17B6A5D
:1047A000013B7B627B6A002B05D0FB6A102B02D198
:1047B0007B6A013B7B62FB6A102B0ED1BB6B202214
:1047C00013400AD17B6A1F2B07D87B6A5A1C7A6276
:1047D0003A6AD31878221A701EE0FB6A102B0ED1A9
:1047E000BB6B202213400AD07B6A1F2B07D87B6A41
:1047F0005A1C7A623A6AD31858221A700CE0FB6A83
:10480000022B09D17B6A1F2B06D87B6A5A1C7A625D
:104810003A6AD31862221A707B6A1F2B06D87B6A09
:104820005A1C7A623A6AD31830221A707B6A1F2B9C
:1048300023D82823FB181B78002B07D07B6A5A1C2F
:104840007A623A6AD3182D221A7016E0BB6B0422E2
:10485000134007D07B6A5A1C7A623A6AD3182B221B
:104860001A700AE0BB6B0822134006D07B6A5A1C00
:104870007A623A6AD31820221A703C687A68B9685A
:10488000F868BB6B03937B6B02937B6A01933B6A73
:1048900000932300FFF7E2FE03001800BD4605B0B9
:1048A00090BD90B597B008AFF860B9607A603B6092
:1048B00000237B63BB6C002B03D1FB6D1022934361
:1048C000FB65FA6D8023DB00134002D0BB6C002B2C
:1048D00033D0BB6C396D180001F0D2FA0B001A000E
:1048E00033217B181A700A00BB181B78092B04D8D7
:1048F000BB181B783033DAB20DE0FB6D2022134079
:1049000001D0412300E061233322BA1812789B18AA
:10491000DBB20A3BDAB27B6B591C79631021791840
:10492000CA54396DB86C01F0ABFA0300BB64BB6CC0
:10493000002B02D07B6B1F2BCBD93C687A68B968FF
:10494000F868FB6D0693BB6D05937B6D04933B6D1F
:1049500003934C23FB181B7802937B6B019310236A
:10496000FB1800932300FFF7C6FE03001800BD46A6
:104970000FB090BDB0B596B008AFF860B9607A607E
:104980003B6000237B63BB6CFA6C134303D1BB6EAB
:1049900010229343BB66BA6E8023DB00134003D022
:1049A000BB6CFA6C13433AD0B86CF96CBA6DFB6D02
:1049B00001F0A4FA1000190033243B19021C1A70EC
:1049C0002200BB181B78092B04D8BB181B78303386
:1049D000DAB20DE0BB6E2022134001D0412300E08B
:1049E00061233322BA1812789B18DBB20A3BDAB281
:1049F0007B6B591C796310217918CA54BA6DFB6D11
:104A0000B86CF96C01F07AFA02000B00BA64FB642E
:104A1000BB6CFA6C134302D07B6B1F2BC4D9BB6DEC
:104A20003D687C68B968F868BA6E06927A6E05923D
:104A30003A6E049203935023FB181B7802937B6B0E
:104A400001931023FB1800932B002200FFF753FE65
:104A500003001800BD460EB0B0BD0000F0B59DB01B
:104A600006AFF860B9607A603B6000237B65002286
:104A70000023BA63FB633A6F7B6F386F796F01F085
:104A8000C0FC031E12D03C687A68B968F8688023BD
:104A9000FB181B680393FB6F029303230193C54B21
:104AA00000932300FFF7DAFD03001DE201225242CA
:104AB000C14B386F796F01F091FC031E12D03C6836
:104AC0007A68B968F8688023FB181B680393FB6F4A
:104AD000029304230193B94B00932300FFF7BEFD1B
:104AE000030001E201225242B54B386F796F01F0A9
:104AF00083FC031E24D08023FB181B680422134070
:104B000001D0B04B00E0B04B8022BA1812680421EB
:104B10000A4001D0042200E003223E687D68BC68A0
:104B2000F8688021791809680391F96F0291019260
:104B3000009333002A002100FFF790FD0300D3E12A
:104B40000022A24B386F796F01F056FC031E07D18B
:104B500000229F4B386F796F01F040FC031E15D087
:104B60003D687C68B968F8688023FB181B6804936B
:104B7000FB6F0393BB6F02933A6F7B6F00920193BD
:104B80002B00220000F0B4F90300ADE153243B19DF
:104B900000221A7000220023386F796F01F01EFC8A
:104BA000031E0CD03B1901221A703A6F7B6F002054
:104BB000002101F0A0FB02000B003A677B67802315
:104BC000FB181A688023DB0013400CD10623BB6757
:104BD00009E07B6D5A1C7A651022BA183021D15435
:104BE000BB6F013BBB677B6D1F2B02D8BB6F092BD3
:104BF000EFD8386F796F01F02FFC0300FB64F86C7D
:104C000001F012FC02000B00386F796F01F073FBAA
:104C100002000B00100019006E4ABB6FDB00D318B6
:104C20001A685B6801F097FB02000B003A637B6334
:104C3000386B796B01F034FC0300BB64B86C01F095
:104C4000EFFB02000B00386B796B01F054FB0200A4
:104C50000B00BA63FB6300225F4BB86BF96B01F08A
:104C6000CBFB031E15D0BB6C0133BB64B86C01F0E9
:104C7000D7FB584ABB6FDB00D3181A685B6801F09A
:104C8000B3FB031E17D00023BB64FB6C0133FB6432
:104C900011E00022504BB86BF96B01F09FFB031E33
:104CA00009D1BB6C002B03D0BB6C0122134002D096
:104CB000BB6C0133BB64BB6F002B3BD1F86C01F0C4
:104CC000B3FB02000B00386F796F01F014FB020098
:104CD0000B00BA63FB6301231C1C00223E4BB86B24
:104CE000F96B01F07BFB031E01D100231C1CE3B216
:104CF00001225340DBB2002B00D188E001231C1CB1
:104D00000022354BB86BF96B01F076FB031E01D125
:104D100000231C1CE3B201225340DBB2002B00D164
:104D200075E0FB6C0122134000D170E0FB6C013395
:104D3000FB646CE0BB6F7B641BE07B6C013B7B64C2
:104D4000BB6C0A21180001F09BF80B00DAB27B6DF6
:104D5000591C79653032D1B21022BA18D154BB6CCB
:104D60000A21180001F08CF80300BB64BB6C002B17
:104D700003D07B6D1F2BE0D908E0C04606E07B6DB9
:104D80005A1C7A651022BA183021D1547B6D1F2B22
:104D900004D87B6C5A1E7A64002BF0D17B6D1F2BDC
:104DA00035D87B6D5A1C7A651022BA182E21D15441
:104DB0002DE0C04680D50010FFFFEFFF84D5001026
:104DC000FFFFEF7F8CD5001094D5001065CDCD414D
:104DD00065CDCDC178D700100000E03FFB6C0A2103
:104DE000180001F025F80B00DAB27B6D591C7965CB
:104DF0003032D1B21022BA18D154FB6C0A211800FB
:104E000001F016F80300FB64FB6C002B03D07B6DF4
:104E10001F2BE3D900E0C04680217B181B680222CB
:104E2000134023D17B181B68012213401ED0FB6F57
:104E3000002B14D05323FB181B78002B04D17B18B4
:104E40001B680C2213400AD0FB6F013BFB6706E096
:104E50007B6D5A1C7A651022BA183021D1547A6DB4
:104E6000FB6F9A4202D27B6D1F2BF1D97B6D1F2BFA
:104E700027D85323FB181B78002B07D07B6D5A1CB7
:104E80007A651022BA182D21D1541AE08023FB181C
:104E90001B680422134007D07B6D5A1C7A651022D0
:104EA000BA182B21D1540CE08023FB181B68082270
:104EB000134006D07B6D5A1C7A651022BA18202147
:104EC000D1543C687A68B968F8688023FB181B687D
:104ED0000393FB6F02937B6D01931023FB180093E8
:104EE0002300FFF7BBFB03001800BD4617B0F0BD61
:104EF000F0B5A7B006AF78643964FA63BB6398264F
:104F0000BB191A685B68B9190868496801F079FA31
:104F1000031E13D101225242D94BB91908684968BE
:104F200001F06AFA031E09D101225242D54BB91988
:104F30000868496801F052FA031E1BD0BD6BFC6B78
:104F4000396C786CA823FB181B680493A423FB1806
:104F50001B680393A023FB181B6802939823FB187C
:104F60001A685B68009201932B002200FFF776FD20
:104F7000030081E23B2338229B18DE190123FB73D7
:104F800000220023982179180868496801F026FA60
:104F9000031E01D10023FB73FB7B33703B233822BC
:104FA0009B18DB191B78002B0FD098217B181B68EE
:104FB0003B609C23FB181A6880231B0653407B60D0
:104FC0003A687B6879180A604B60A823FB181A6856
:104FD0008023DB00134003D10623A022BA181360FC
:104FE0009826BB191A685B68BA64FB64BA6CFB6CE0
:104FF0001100194300D108E1BA6CFB6C1B0DBB62B8
:105000000023FB62BB6A5B055B0D9F4A94466344C9
:10501000FB66BA6CFB6C00211000884304001B0384
:105020001D0B002323433B62984B2B437B623B6A5F
:105030007C6ABB64FC64F86E01F0F6F9944A954B07
:1050400001F089F902000B0010001900924A934BFD
:1050500001F05AF902000B0014001D00B86CF96C45
:1050600000228F4B01F047F902000B0010001900DD
:105070008C4A8D4B01F06FF902000B0020002900D3
:1050800001F042F902000B001000190001F0E4F9F0
:105090000300FB67F86F01F0C7F9844A844B01F005
:1050A0005AF902000B00100019000022814B01F098
:1050B0002BF902000B001000190001F0CDF90300DC
:1050C000FB66F86F01F0B0F97B4A7C4B01F043F9C5
:1050D00002000B0014001D00F86E01F0A5F9784ADB
:1050E000784B01F038F902000B002000290001F094
:1050F00002F902000B003A667B663A6E7B6E386EF0
:10510000796E01F028F902000B00BA65FB65FB6EB1
:105110006D4A94466344BB61DB17FB61BB691B05A9
:105120007B6100233B613B697C69BB64FC64BC6CB4
:10513000FD6C386E796E02000B0001F0E5F802009C
:105140000B00BA62FB623A6E7B6E00208021C905BB
:1051500001F0D1F802000B003A627B6200225B4B47
:10516000B86DF96D01F0D9F802000B0010001900BC
:105170000022574B01F0C8F802000B00B86DF96D22
:1051800001F0CBF802000B00100019000022514B77
:1051900001F0BAF802000B00B86DF96D01F0BDF82E
:1051A00002000B00386A796A01F0AEF802000B00C9
:1051B000B86AF96A01F0B1F802000B00100019009A
:1051C0000022324B01F0A0F802000B002000290061
:1051D00001F0C1F802000B00BA64FB64BA6CFB6C0E
:1051E000B9190868496801F0F9F8031E0FD0FB6F80
:1051F000013BFB67B86CF96C0022354B01F08DF870
:1052000002000B00BA64FB6401E00023FB67FB6F44
:10521000632B04DCFB6F633301DB042300E0052315
:10522000BB67A823FB181A6880231B01134000D119
:105230007AE0BA6CFB6C1100194312D0264A274B56
:10524000982439190868496801F0CEF8031E5AD02D
:105250000022234B39190868496801F0BFF8031E82
:1052600051D0A0217B181B68FA6F9A423ADA7B185A
:105270001A68FB6FD31A013B7A18136036E0C046F8
:10528000FFFFEF7FFFFFEFFF01FCFFFF0000F03F9C
:10529000FB799F501344D33FB3C8608B288AC63F25
:1052A0000000F83F61436F63A787D23F71A379097C
:1052B0004F930A400000E03F1655B5BBB16B02406A
:1052C000EF39FAFE422EE63FFF03000000002C40BB
:1052D00000002440000018402D431CEBE2361A3F2A
:1052E00080842E410023A022BA181360A8217B18C5
:1052F0001B688022D20013437A1813600023BB6717
:105300000023FB6710E0A0217B181B68002B0BD04B
:10531000A823FB181A688023DB00134004D07B18F5
:105320001B68013B7A181360A422BB181B687B67BB
:10533000BB181A68BB6F9A4204D97A6FBB6FD31A35
:105340007B6701E000237B67A823FB181B68022210
:10535000134004D0BB6F002B01D000237B67FB6F91
:10536000002B0CD0BA6CFB6C98243919086849687A
:1053700000F0D3FF02000B0039190A604B60FB6B91
:105380007B653B2338229B18DB191B78002B0BD045
:105390009823FB181B683B639C23FB181B68802227
:1053A00012065A407A6305E09823FB185C681B6874
:1053B0003B637C63A823FA181368314A1340BC6B23
:1053C000FA6B396C786C04937B6F0393A0257D197D
:1053D0002B6802933D6B7E6B009501962300FFF7CF
:1053E0003DFB0300FB63BB6F002B44D0A823FB18DD
:1053F0001B682022134001D0452000E06520FA6B95
:10540000531CFB63BB6B396C7C6CA047FB6FDA17DA
:105410009B1853409C46FB6FDB0FDBB2BA6F013A1F
:10542000BD6BFC6B396C786C0526059604920022E6
:1054300003920A2202920193634600932B002200FA
:10544000FFF72FFA0300FB63A823FB181B68022257
:10545000134010D007E0FA6B531CFB63BB6B396C35
:105460007C6C2020A047FA6B7B6DD31AA422BA185B
:1054700012689A42EFD8FB6B1800BD4621B0F0BD10
:10548000FFF7FFFFF0B5C64600B5A6B00AAF7862D9
:105490003962FA61BB610023FB653B6A002B01D0D6
:1054A00000F026FCD04B7B6200F022FCBB691B782D
:1054B000252B0DD0BB691878FA6D531CFB65FB6971
:1054C000396A7C6AA047BB690133BB6100F010FCFC
:1054D000BB690133BB610023FB66BB691B78203BC2
:1054E000102B36D89A00C14BD3181B689F46FB6E11
:1054F00001221343FB66BB690133BB6101233B6699
:105500002AE0FB6E02221343FB66BB690133BB61D9
:1055100001233B6620E0FB6E04221343FB66BB695C
:105520000133BB6101233B6616E0FB6E0822134387
:10553000FB66BB690133BB6101233B660CE0FB6E7C
:1055400010221343FB66BB690133BB6101233B6639
:1055500002E000233B66C0463B6E002BBDD100231A
:10556000BB66BB691B781800FFF73CF8031E07D029
:105570001823FB181800FFF74EF80300BB661CE069
:10558000BB691B782A2B18D18823FB181B681A1DAE
:10559000882179180A601B68BB64BB6C002B07DA92
:1055A000FB6E02221343FB66BB6C5B42BB6601E0F1
:1055B000BB6CBB66BB690133BB6100237B66BB6907
:1055C0001B782E2B2BD1FB6E8022D2001343FB665F
:1055D000BB690133BB61BB691B781800FFF702F898
:1055E000031E07D01823FB181800FFF714F8030058
:1055F0007B6614E0BB691B782A2B10D18823FB182B
:105600001B681A1D882179180A601B687B647B6CF3
:10561000002B00DA00237B66BB690133BB61BB69E9
:105620001B78683B122B47D89A00714BD3181B6824
:105630009F46FB6E802252001343FB66BB69013319
:10564000BB61BB691B786C2B38D1FB6E802292004A
:105650001343FB66BB690133BB612FE0FB6E802205
:105660001343FB66BB690133BB61BB691B78682BC5
:1056700026D1FB6E40221343FB66BB690133BB613D
:105680001EE0FB6E802252001343FB66BB690133B0
:10569000BB6116E0FB6E802292001343FB66BB6980
:1056A0000133BB610DE0FB6E802252001343FB66A9
:1056B000BB690133BB6104E0C04602E0C04600E0C4
:1056C000C046BB691B78253B532B00D903E39A00E6
:1056D000484BD3181B689F46BB691B78782B03D0B7
:1056E000BB691B78582B02D11023BB6513E0BB6943
:1056F0001B786F2B02D10823BB650CE0BB691B78BC
:10570000622B02D10223BB6505E00A23BB65FB6E59
:1057100010229343FB66BB691B78582B03D1FB6EA9
:1057200020221343FB66BB691B78692B07D0BB693A
:105730001B78642B03D0FB6E0C229343FB66FA6E3E
:105740008023DB00134003D0FB6E01229343FB66F2
:10575000BB691B78692B04D0BB691B78642B00D014
:10576000B7E0FA6E80239B00134045D08823FB18D6
:105770001B680733072293431A00083288217918DF
:105780000A601A685B68BA62FB62BA6AFB6A002B3D
:1057900005DA00200021801A994102000B00100058
:1057A0001900FB6ADB0FDAB2BB6D3B6100237B6142
:1057B000FB699C46FE6D3D6A7B6A9846FB6E0893CA
:1057C000BB6E07937B6E06933B697C6904930594DB
:1057D0000292009001916346320029004046FFF793
:1057E000C9F80300FB6502E15D45001098D5001083
:1057F000DCD5001028D60010FA6E80235B00134021
:1058000025D08823FB181B681A1D882179180A6087
:105810001B687B637B6BDA179B1853401E007B6B06
:10582000DB0FDAB2FD69FC6D396A786AFB6E0593AD
:10583000BB6E04937B6E0393BB6D02930192009643
:105840002B002200FFF72DF80300FB65CFE0FB6E75
:105850004022134009D08823FB181B681A1D882199
:1058600079180A601B68DBB215E0FB6E80221340DA
:1058700009D08823FB181B681A1D882179180A6033
:105880001B681BB207E08823FB181B681A1D8821C0
:1058900079180A601B68BB63BB6BDA179B1853400F
:1058A0001E00BB6BDB0FDAB2FD69FC6D396A786AEA
:1058B000FB6E0593BB6E04937B6E0393BB6D0293EB
:1058C000019200962B002200FEF7EBFF0300FB6520
:1058D0008DE0FA6E80239B0013402BD08823FB18A9
:1058E0001B680733072293431A000832882179186E
:1058F0000A6018685968BB6DBB600023FB60FE69D5
:10590000FA6D3D6A7B6A9C46FB6E0893BB6E0793FB
:105910007B6E0693BB68FC68049305940023029396
:1059200000900191330029006046FFF723F803003F
:10593000FB655CE0FA6E80235B0013401DD088237A
:10594000FB181B681A1D882179180A601B68FD69FD
:10595000FC6D396A786AFA6E0592BA6E04927A6EB4
:105960000392BA6D02920022019200932B00220052
:10597000FEF797FF0300FB6539E0FB6E4022134002
:1059800009D08823FB181B681A1D882179180A6022
:105990001B68DBB215E0FB6E8022134009D0882320
:1059A000FB181B681A1D882179180A601B689BB2B6
:1059B00007E08823FB181B681A1D882179180A60E4
:1059C0001B68FB63FC69FA6D396A786AFB6E0593A4
:1059D000BB6E04937B6E0393BB6D02930023019314
:1059E000FB6B00932300FEF75CFF0300FB65BB69C4
:1059F0000133BB617CE1BB691B78462B03D1FB6E95
:105A000020221343FB668823FB181B6807330722F9
:105A100093431A000832882179180A601A685B6873
:105A2000FE69FD6D3C6A786AF96E0491B96E039166
:105A3000796E02910092019333002A002100FFF752
:105A40000DF80300FB65BB690133BB6150E1BB6925
:105A50001B78672B03D0BB691B78472B04D1FB6EE7
:105A6000802212011343FB66BB691B78452B03D0D0
:105A7000BB691B78472B03D1FB6E20221343FB66C7
:105A80008823FB181B680733072293431A00083248
:105A9000882179180A601A685B68FE69FD6D3C6AA6
:105AA000786AF96E0491B96E0391796E0291009251
:105AB000019333002A002100FFF71AFA0300FB6567
:105AC000BB690133BB6113E101237B65FB6E0222DD
:105AD00013400ED107E0FA6D531CFB65FB69396A70
